:100000000C9434000C9446000C9446000C9446006A
:100010000C9446000C9446000C9446000C94460048
:100020000C9446000C9446000C9446000C94460038
:100030000C9446000C9446000C9446000C94460028
:100040000C9446000C9446000C9446000C94460018
:100050000C9446000C9446000C9446000C94460008
:100060000C9446000C94460011241FBECFEFD8E03C
:10007000DEBFCDBF11E0A0E0B1E001C01D92A5340C
:10008000B107E1F70E9448000C9473010C94000042
:10009000CF93DF930E947001CCE2D1E00E94CA00AE
:1000A00085E50E94D60086E60E94D60087E70E947A
:1000B000D6000E94110188E893E1FE013197F1F723
:1000C0000197D9F7EBCFE0E0F1E0119281E0E03267
:1000D000F807D9F712A211A20895E0E2F1E0119217
:1000E00081E0E034F807D9F7148213821082089572
:1000F000E0E0F1E0119281E0E032F807D9F712A2D6
:1001000011A20E946D000895209A5498389A579A27
:1001100028985C9A40985F9A089584E18A95F1F74F
:100120000895813011F4289A08952898089589B186
:1001300090E024E0969587952A95E1F781700895DF
:10014000813011F4409A089540980895813011F457
:100150005F9A08955F98089594E19A95F1F720E0E9
:1001600034E187FF02C0409A01C04098932F9A95CE
:10017000F1F7289A99B1932F9A95F1F72898932F30
:100180009A95F1F72F5F283011F0880FEACF409849
:1001900080E00895E0E0F1E0119281E0E032F807BC
:1001A000D9F712A211A20E946D0008952091410179
:1001B00030914201F901E050FF4F80832F5F3F4FA4
:1001C00030934201209341012032310520F01092FA
:1001D0004201109241010895CF93DF93EC0140E07A
:1001E00050E019C08091410190914201DC01A05082
:1001F000BF4FFE01E40FF51F20812C9301969093D1
:10020000420180934101809720F0109242011092A8
:1002100041014F5F5F4F4617570720F3DF91CF91A2
:1002200008950F931F93CF93DF935F98C0E0D0E0C2
:1002300024C00091430110914401FE01E050FF4FA2
:1002400080810E94AC0000501F4FF80180A3809174
:10025000430190914401FC01E050FF4F20A1209305
:10026000400101969093440180934301809720F0D0
:100270001092440110924301219680914101909186
:100280004201C817D907A8F25F9ADF91CF911F9159
:100290000F910895FC01E050FF4F80810895FC010B
:1002A000E050FF4F80A1089580914101909142015B
:1002B0000895809143019091440108952091430154
:1002C00030914401F901E050FF4F80A12F5F3F4F73
:1002D0003093440120934301089580914001089593
:0A02E0000E9484000895F894FFCFF7
:00000001FF
